{
  "_format": "hh-sol-artifact-1",
  "contractName": "DeadMansContract",
  "sourceName": "contracts/DeadMansContract.sol",
  "abi": [
    {
      "inputs": [
        {
          "internalType": "string",
          "name": "decryptionKey",
          "type": "string"
        },
        {
          "internalType": "uint256",
          "name": "hourCadence",
          "type": "uint256"
        }
      ],
      "stateMutability": "nonpayable",
      "type": "constructor"
    },
    {
      "anonymous": false,
      "inputs": [
        {
          "indexed": true,
          "internalType": "address",
          "name": "previousOwner",
          "type": "address"
        },
        {
          "indexed": true,
          "internalType": "address",
          "name": "newOwner",
          "type": "address"
        }
      ],
      "name": "OwnershipTransferred",
      "type": "event"
    },
    {
      "anonymous": false,
      "inputs": [],
      "name": "heartbeat",
      "type": "event"
    },
    {
      "inputs": [],
      "name": "_renounceOwnership",
      "outputs": [],
      "stateMutability": "nonpayable",
      "type": "function"
    },
    {
      "inputs": [],
      "name": "defuse",
      "outputs": [],
      "stateMutability": "nonpayable",
      "type": "function"
    },
    {
      "inputs": [],
      "name": "getDecryptionKey",
      "outputs": [
        {
          "internalType": "string",
          "name": "",
          "type": "string"
        }
      ],
      "stateMutability": "view",
      "type": "function"
    },
    {
      "inputs": [],
      "name": "getNextTimeStamp",
      "outputs": [
        {
          "internalType": "uint256",
          "name": "",
          "type": "uint256"
        }
      ],
      "stateMutability": "view",
      "type": "function"
    },
    {
      "inputs": [],
      "name": "getUrl",
      "outputs": [
        {
          "internalType": "string",
          "name": "",
          "type": "string"
        }
      ],
      "stateMutability": "view",
      "type": "function"
    },
    {
      "inputs": [],
      "name": "isActive",
      "outputs": [
        {
          "internalType": "bool",
          "name": "",
          "type": "bool"
        }
      ],
      "stateMutability": "view",
      "type": "function"
    },
    {
      "inputs": [],
      "name": "owner",
      "outputs": [
        {
          "internalType": "address",
          "name": "",
          "type": "address"
        }
      ],
      "stateMutability": "view",
      "type": "function"
    },
    {
      "inputs": [],
      "name": "renounceOwnership",
      "outputs": [],
      "stateMutability": "nonpayable",
      "type": "function"
    },
    {
      "inputs": [
        {
          "internalType": "string",
          "name": "url",
          "type": "string"
        }
      ],
      "name": "setUrl",
      "outputs": [],
      "stateMutability": "nonpayable",
      "type": "function"
    },
    {
      "inputs": [],
      "name": "tick",
      "outputs": [],
      "stateMutability": "nonpayable",
      "type": "function"
    },
    {
      "inputs": [
        {
          "internalType": "address",
          "name": "newOwner",
          "type": "address"
        }
      ],
      "name": "transferOwnership",
      "outputs": [],
      "stateMutability": "nonpayable",
      "type": "function"
    }
  ],
  "bytecode": "0x60806040523480156200001157600080fd5b5060405162001a3f38038062001a3f833981810160405281019062000037919062000526565b620000576200004b6200018d60201b60201c565b6200019560201b60201c565b60a881106200006557600080fd5b81600190805190602001906200007d929190620003e1565b5080600481905550620000d06040518060400160405280600f81526020017f446561644d616e206372656174656400000000000000000000000000000000008152506200025960201b6200080c1760201c565b620000e6826200025960201b6200080c1760201c565b620000fc42620002fc60201b620008a51760201c565b6200010f6004546200039f60201b60201c565b426200011c91906200069a565b6003819055506200013a600354620002fc60201b620008a51760201c565b620001856040518060400160405280600f81526020017f2d2d2d2d2d2d2d2d2d2d2d2d2d2d2d00000000000000000000000000000000008152506200025960201b6200080c1760201c565b5050620008d0565b600033905090565b60008060009054906101000a900473ffffffffffffffffffffffffffffffffffffffff169050816000806101000a81548173ffffffffffffffffffffffffffffffffffffffff021916908373ffffffffffffffffffffffffffffffffffffffff1602179055508173ffffffffffffffffffffffffffffffffffffffff168173ffffffffffffffffffffffffffffffffffffffff167f8be0079c531659141344cd1fd0a4f28419497f9722a3daafe3b4186f6b6457e060405160405180910390a35050565b620002f981604051602401620002709190620005de565b6040516020818303038152906040527f41304fac000000000000000000000000000000000000000000000000000000007bffffffffffffffffffffffffffffffffffffffffffffffffffffffff19166020820180517bffffffffffffffffffffffffffffffffffffffffffffffffffffffff8381831617835250505050620003b860201b60201c565b50565b6200039c8160405160240162000313919062000602565b6040516020818303038152906040527ff5b1bba9000000000000000000000000000000000000000000000000000000007bffffffffffffffffffffffffffffffffffffffffffffffffffffffff19166020820180517bffffffffffffffffffffffffffffffffffffffffffffffffffffffff8381831617835250505050620003b860201b60201c565b50565b6000610e1082620003b19190620006f7565b9050919050565b60008151905060006a636f6e736f6c652e6c6f679050602083016000808483855afa5050505050565b828054620003ef9062000798565b90600052602060002090601f0160209004810192826200041357600085556200045f565b82601f106200042e57805160ff19168380011785556200045f565b828001600101855582156200045f579182015b828111156200045e57825182559160200191906001019062000441565b5b5090506200046e919062000472565b5090565b5b808211156200048d57600081600090555060010162000473565b5090565b6000620004a8620004a28462000648565b6200061f565b905082815260208101848484011115620004c757620004c662000896565b5b620004d484828562000762565b509392505050565b600082601f830112620004f457620004f362000891565b5b81516200050684826020860162000491565b91505092915050565b6000815190506200052081620008b6565b92915050565b6000806040838503121562000540576200053f620008a0565b5b600083015167ffffffffffffffff8111156200056157620005606200089b565b5b6200056f85828601620004dc565b925050602062000582858286016200050f565b9150509250929050565b600062000599826200067e565b620005a5818562000689565b9350620005b781856020860162000762565b620005c281620008a5565b840191505092915050565b620005d88162000758565b82525050565b60006020820190508181036000830152620005fa81846200058c565b905092915050565b6000602082019050620006196000830184620005cd565b92915050565b60006200062b6200063e565b9050620006398282620007ce565b919050565b6000604051905090565b600067ffffffffffffffff82111562000666576200066562000862565b5b6200067182620008a5565b9050602081019050919050565b600081519050919050565b600082825260208201905092915050565b6000620006a78262000758565b9150620006b48362000758565b9250827fffffffffffffffffffffffffffffffffffffffffffffffffffffffffffffffff03821115620006ec57620006eb62000804565b5b828201905092915050565b6000620007048262000758565b9150620007118362000758565b9250817fffffffffffffffffffffffffffffffffffffffffffffffffffffffffffffffff04831182151516156200074d576200074c62000804565b5b828202905092915050565b6000819050919050565b60005b838110156200078257808201518184015260208101905062000765565b8381111562000792576000848401525b50505050565b60006002820490506001821680620007b157607f821691505b60208210811415620007c857620007c762000833565b5b50919050565b620007d982620008a5565b810181811067ffffffffffffffff82111715620007fb57620007fa62000862565b5b80604052505050565b7f4e487b7100000000000000000000000000000000000000000000000000000000600052601160045260246000fd5b7f4e487b7100000000000000000000000000000000000000000000000000000000600052602260045260246000fd5b7f4e487b7100000000000000000000000000000000000000000000000000000000600052604160045260246000fd5b600080fd5b600080fd5b600080fd5b600080fd5b6000601f19601f8301169050919050565b620008c18162000758565b8114620008cd57600080fd5b50565b61115f80620008e06000396000f3fe608060405234801561001057600080fd5b50600436106100a95760003560e01c80634b3f2889116100715780634b3f28891461011a578063715018a6146101245780637d6ddcc11461012e5780638da5cb5b1461014c578063d6bd87271461016a578063f2fde38b14610188576100a9565b80630c4b12de146100ae57806315694523146100cc57806322f3e2d4146100d6578063252498a2146100f45780633eaf5d9f14610110575b600080fd5b6100b66101a4565b6040516100c39190610d6f565b60405180910390f35b6100d46101ae565b005b6100de61026a565b6040516100eb9190610cd2565b60405180910390f35b61010e60048036038101906101099190610b9f565b610302565b005b610118610398565b005b610122610474565b005b61012c6104fa565b005b610136610582565b6040516101439190610ced565b60405180910390f35b610154610659565b6040516101619190610cb7565b60405180910390f35b610172610682565b60405161017f9190610ced565b60405180910390f35b6101a2600480360381019061019d9190610b72565b610714565b005b6000600354905090565b6101b661093e565b73ffffffffffffffffffffffffffffffffffffffff166101d4610659565b73ffffffffffffffffffffffffffffffffffffffff161461022a576040517f08c379a000000000000000000000000000000000000000000000000000000000815260040161022190610d2f565b60405180910390fd5b60006004819055506000600381905550604051806020016040528060008152506001908051906020019061025f929190610a4a565b506102686104fa565b565b600061027461093e565b73ffffffffffffffffffffffffffffffffffffffff16610292610659565b73ffffffffffffffffffffffffffffffffffffffff16146102e8576040517f08c379a00000000000000000000000000000000000000000000000000000000081526004016102df90610d2f565b60405180910390fd5b60035442116102fa57600190506102ff565b600090505b90565b61030a61093e565b73ffffffffffffffffffffffffffffffffffffffff16610328610659565b73ffffffffffffffffffffffffffffffffffffffff161461037e576040517f08c379a000000000000000000000000000000000000000000000000000000000815260040161037590610d2f565b60405180910390fd5b8060029080519060200190610394929190610a4a565b5050565b6103a061093e565b73ffffffffffffffffffffffffffffffffffffffff166103be610659565b73ffffffffffffffffffffffffffffffffffffffff1614610414576040517f08c379a000000000000000000000000000000000000000000000000000000000815260040161040b90610d2f565b60405180910390fd5b60035442111561042357600080fd5b61042e600454610946565b6003600082825461043f9190610dfc565b925050819055507f3defb9623b0913f99764ce3be9cac8bcf2590eaaaec023fe91efcd88ca63e26160405160405180910390a1565b61047c61093e565b73ffffffffffffffffffffffffffffffffffffffff1661049a610659565b73ffffffffffffffffffffffffffffffffffffffff16146104f0576040517f08c379a00000000000000000000000000000000000000000000000000000000081526004016104e790610d2f565b60405180910390fd5b6104f86104fa565b565b61050261093e565b73ffffffffffffffffffffffffffffffffffffffff16610520610659565b73ffffffffffffffffffffffffffffffffffffffff1614610576576040517f08c379a000000000000000000000000000000000000000000000000000000000815260040161056d90610d2f565b60405180910390fd5b610580600061095d565b565b60606003544210156105c9576040517f08c379a00000000000000000000000000000000000000000000000000000000081526004016105c090610d4f565b60405180910390fd5b600180546105d690610f36565b80601f016020809104026020016040519081016040528092919081815260200182805461060290610f36565b801561064f5780601f106106245761010080835404028352916020019161064f565b820191906000526020600020905b81548152906001019060200180831161063257829003601f168201915b5050505050905090565b60008060009054906101000a900473ffffffffffffffffffffffffffffffffffffffff16905090565b60606002805461069190610f36565b80601f01602080910402602001604051908101604052809291908181526020018280546106bd90610f36565b801561070a5780601f106106df5761010080835404028352916020019161070a565b820191906000526020600020905b8154815290600101906020018083116106ed57829003601f168201915b5050505050905090565b61071c61093e565b73ffffffffffffffffffffffffffffffffffffffff1661073a610659565b73ffffffffffffffffffffffffffffffffffffffff1614610790576040517f08c379a000000000000000000000000000000000000000000000000000000000815260040161078790610d2f565b60405180910390fd5b600073ffffffffffffffffffffffffffffffffffffffff168173ffffffffffffffffffffffffffffffffffffffff161415610800576040517f08c379a00000000000000000000000000000000000000000000000000000000081526004016107f790610d0f565b60405180910390fd5b6108098161095d565b50565b6108a2816040516024016108209190610ced565b6040516020818303038152906040527f41304fac000000000000000000000000000000000000000000000000000000007bffffffffffffffffffffffffffffffffffffffffffffffffffffffff19166020820180517bffffffffffffffffffffffffffffffffffffffffffffffffffffffff8381831617835250505050610a21565b50565b61093b816040516024016108b99190610d6f565b6040516020818303038152906040527ff5b1bba9000000000000000000000000000000000000000000000000000000007bffffffffffffffffffffffffffffffffffffffffffffffffffffffff19166020820180517bffffffffffffffffffffffffffffffffffffffffffffffffffffffff8381831617835250505050610a21565b50565b600033905090565b6000610e10826109569190610e52565b9050919050565b60008060009054906101000a900473ffffffffffffffffffffffffffffffffffffffff169050816000806101000a81548173ffffffffffffffffffffffffffffffffffffffff021916908373ffffffffffffffffffffffffffffffffffffffff1602179055508173ffffffffffffffffffffffffffffffffffffffff168173ffffffffffffffffffffffffffffffffffffffff167f8be0079c531659141344cd1fd0a4f28419497f9722a3daafe3b4186f6b6457e060405160405180910390a35050565b60008151905060006a636f6e736f6c652e6c6f679050602083016000808483855afa5050505050565b828054610a5690610f36565b90600052602060002090601f016020900481019282610a785760008555610abf565b82601f10610a9157805160ff1916838001178555610abf565b82800160010185558215610abf579182015b82811115610abe578251825591602001919060010190610aa3565b5b509050610acc9190610ad0565b5090565b5b80821115610ae9576000816000905550600101610ad1565b5090565b6000610b00610afb84610daf565b610d8a565b905082815260208101848484011115610b1c57610b1b61102b565b5b610b27848285610ef4565b509392505050565b600081359050610b3e81611112565b92915050565b600082601f830112610b5957610b58611026565b5b8135610b69848260208601610aed565b91505092915050565b600060208284031215610b8857610b87611035565b5b6000610b9684828501610b2f565b91505092915050565b600060208284031215610bb557610bb4611035565b5b600082013567ffffffffffffffff811115610bd357610bd2611030565b5b610bdf84828501610b44565b91505092915050565b610bf181610eac565b82525050565b610c0081610ebe565b82525050565b6000610c1182610de0565b610c1b8185610deb565b9350610c2b818560208601610f03565b610c348161103a565b840191505092915050565b6000610c4c602683610deb565b9150610c578261104b565b604082019050919050565b6000610c6f602083610deb565b9150610c7a8261109a565b602082019050919050565b6000610c92602583610deb565b9150610c9d826110c3565b604082019050919050565b610cb181610eea565b82525050565b6000602082019050610ccc6000830184610be8565b92915050565b6000602082019050610ce76000830184610bf7565b92915050565b60006020820190508181036000830152610d078184610c06565b905092915050565b60006020820190508181036000830152610d2881610c3f565b9050919050565b60006020820190508181036000830152610d4881610c62565b9050919050565b60006020820190508181036000830152610d6881610c85565b9050919050565b6000602082019050610d846000830184610ca8565b92915050565b6000610d94610da5565b9050610da08282610f68565b919050565b6000604051905090565b600067ffffffffffffffff821115610dca57610dc9610ff7565b5b610dd38261103a565b9050602081019050919050565b600081519050919050565b600082825260208201905092915050565b6000610e0782610eea565b9150610e1283610eea565b9250827fffffffffffffffffffffffffffffffffffffffffffffffffffffffffffffffff03821115610e4757610e46610f99565b5b828201905092915050565b6000610e5d82610eea565b9150610e6883610eea565b9250817fffffffffffffffffffffffffffffffffffffffffffffffffffffffffffffffff0483118215151615610ea157610ea0610f99565b5b828202905092915050565b6000610eb782610eca565b9050919050565b60008115159050919050565b600073ffffffffffffffffffffffffffffffffffffffff82169050919050565b6000819050919050565b82818337600083830152505050565b60005b83811015610f21578082015181840152602081019050610f06565b83811115610f30576000848401525b50505050565b60006002820490506001821680610f4e57607f821691505b60208210811415610f6257610f61610fc8565b5b50919050565b610f718261103a565b810181811067ffffffffffffffff82111715610f9057610f8f610ff7565b5b80604052505050565b7f4e487b7100000000000000000000000000000000000000000000000000000000600052601160045260246000fd5b7f4e487b7100000000000000000000000000000000000000000000000000000000600052602260045260246000fd5b7f4e487b7100000000000000000000000000000000000000000000000000000000600052604160045260246000fd5b600080fd5b600080fd5b600080fd5b600080fd5b6000601f19601f8301169050919050565b7f4f776e61626c653a206e6577206f776e657220697320746865207a65726f206160008201527f6464726573730000000000000000000000000000000000000000000000000000602082015250565b7f4f776e61626c653a2063616c6c6572206973206e6f7420746865206f776e6572600082015250565b7f5468652073776974636820686173206e6f74206265656e20616374697661746560008201527f6420796574000000000000000000000000000000000000000000000000000000602082015250565b61111b81610eac565b811461112657600080fd5b5056fea26469706673582212205d3038cbddb5ff146d6c58dd39793517bfd80b832e93f4af652cd3c6993c297864736f6c63430008070033",
  "linkReferences": {},
  "deployedLinkReferences": {}
}